{"abi":[{"type":"constructor","inputs":[{"name":"_proxyAddress","type":"address","internalType":"address"},{"name":"_api3Decimals","type":"uint256","internalType":"uint256"},{"name":"_decimals","type":"uint256","internalType":"uint256"}],"stateMutability":"nonpayable"},{"type":"function","name":"acceptTermsOfService","inputs":[],"outputs":[],"stateMutability":"nonpayable"},{"type":"function","name":"proxyAddress","inputs":[],"outputs":[{"name":"","type":"address","internalType":"address"}],"stateMutability":"view"},{"type":"function","name":"readData","inputs":[],"outputs":[{"name":"","type":"uint256","internalType":"uint256"}],"stateMutability":"view"},{"type":"function","name":"scalingFactor","inputs":[],"outputs":[{"name":"","type":"uint256","internalType":"uint256"}],"stateMutability":"view"}],"bytecode":{"object":"0x60c060405234156100105760006000fd5b6103b28038038060c00160c0811067ffffffffffffffff8211171561003157fe5b8060405250808260c039606081121561004a5760006000fd5b505060c05173ffffffffffffffffffffffffffffffffffffffff8116811415156100745760006000fd5b60e0516100856101005182846100ba565b505060805160a0516102cc806100e6600039818061011c528061029a52508280606a52806101ed5250806000f35050506100e4565b80608052818310156100c857fe5b818303604d8111156100d657fe5b80600a0a60a052505b505050565bfe6080604052600436101515610149576000803560e01c6323f5c02d81146100465763bef55ef381146100985763dddd9e9681146100d35763ed3437f881146100f857610146565b3415610050578182fd5b61005b366004610153565b61006482610196565b8061008f7f000000000000000000000000000000000000000000000000000000000000000083610169565b0381f350610146565b34156100a2578182fd5b6100ad366004610153565b6100b56101e1565b6100be83610196565b806100c98383610184565b0381f35050610146565b34156100dd578182fd5b6100e8366004610153565b816100f283610196565bf3610146565b3415610102578182fd5b61010d366004610153565b61011682610196565b806101417f000000000000000000000000000000000000000000000000000000000000000083610184565b0381f3505b50505b60006000fd6102cb565b600081830312156101645760006000fd5b5b5050565b60006020820190506001600160a01b03831682525b92915050565b60006020820190508282525b92915050565b6000604051905081810181811067ffffffffffffffff821117156101b657fe5b80604052505b919050565b60008160001904831182151516156101d557fe5b82820290505b92915050565b60006001600160a01b037f000000000000000000000000000000000000000000000000000000000000000016803b1515610219578182fd5b6040516315f789a960e21b8152604081600483855afa9150811515610240573d83843e3d83fd5b82821561029557601f19601f3d011682016040526040823d8401031215610265578384fd5b815180601b0b81141515610277578485fd5b602083015163ffffffff81168114151561028f578586fd5b50809150505b6102c27f000000000000000000000000000000000000000000000000000000000000000082601b0b6101c1565b93505050505b90565b","linkReferences":{}},"deployedBytecode":{"object":"0x","linkReferences":{}},"methodIdentifiers":{"acceptTermsOfService()":"dddd9e96","proxyAddress()":"23f5c02d","readData()":"bef55ef3","scalingFactor()":"ed3437f8"},"id":2}