{"abi":[{"type":"constructor","inputs":[{"name":"_dataFeedAddress","type":"address","internalType":"address"},{"name":"_decimals","type":"uint256","internalType":"uint256"}],"stateMutability":"nonpayable"},{"type":"function","name":"acceptTermsOfService","inputs":[],"outputs":[],"stateMutability":"nonpayable"},{"type":"function","name":"readData","inputs":[],"outputs":[{"name":"","type":"uint256","internalType":"uint256"}],"stateMutability":"view"},{"type":"function","name":"scalingFactor","inputs":[],"outputs":[{"name":"","type":"uint256","internalType":"uint256"}],"stateMutability":"view"}],"bytecode":{"object":"0x60a0806040523461010057604081610333803803809161001f8285610117565b8339810103126101005780516001600160a01b0381169190829003610100576020908101515f80546001600160a01b0319168417905560405163313ce56760e01b81529092909190829060049082905afa801561010c575f906100cb575b60ff9150169081039081116100b757604d81116100b757600a0a6080526040516101e4908161014f82396080518181816054015260cf0152f35b634e487b7160e01b5f52601160045260245ffd5b506020813d602011610104575b816100e560209383610117565b81010312610100575160ff811681036101005760ff9061007d565b5f80fd5b3d91506100d8565b6040513d5f823e3d90fd5b601f909101601f19168101906001600160401b0382119082101761013a57604052565b634e487b7160e01b5f52604160045260245ffdfe6080806040526004361015610012575f80fd5b5f3560e01c908163bef55ef31461008d57508063dddd9e961461007b5763ed3437f81461003d575f80fd5b34610077575f3660031901126100775760206040517f00000000000000000000000000000000000000000000000000000000000000008152f35b5f80fd5b34610077575f36600319011261007757005b34610077575f366003190112610077575f54633fabe5a360e21b825260a090829060049082906001600160a01b03165afa90811561018c575f91610115575b507f00000000000000000000000000000000000000000000000000000000000000009081156101015760209160405191048152f35b634e487b7160e01b5f52601260045260245ffd5b905060a03d60a011610185575b601f8101601f1916820167ffffffffffffffff8111838210176101715760a0918391604052810103126100775761015881610197565b5061016a608060208301519201610197565b50816100cc565b634e487b7160e01b5f52604160045260245ffd5b503d610122565b6040513d5f823e3d90fd5b519069ffffffffffffffffffff821682036100775756fea26469706673582212209673ddeb55b798f5094586c6147a71d254ed39e9b38245e74cfdcd015b47b0cf64736f6c63430008210033","linkReferences":{}},"methodIdentifiers":{"acceptTermsOfService()":"dddd9e96","readData()":"bef55ef3","scalingFactor()":"ed3437f8"},"id":26}