{"abi":[{"type":"constructor","inputs":[{"name":"_ref","type":"address","internalType":"contract IStdReference"},{"name":"_decimals","type":"uint8","internalType":"uint8"},{"name":"_hebeSwapDecimals","type":"uint8","internalType":"uint8"},{"name":"_baseToken","type":"string","internalType":"string"},{"name":"_quoteToken","type":"string","internalType":"string"}],"stateMutability":"nonpayable"},{"type":"function","name":"acceptTermsOfService","inputs":[],"outputs":[],"stateMutability":"nonpayable"},{"type":"function","name":"baseToken","inputs":[],"outputs":[{"name":"","type":"string","internalType":"string"}],"stateMutability":"view"},{"type":"function","name":"quoteToken","inputs":[],"outputs":[{"name":"","type":"string","internalType":"string"}],"stateMutability":"view"},{"type":"function","name":"readData","inputs":[],"outputs":[{"name":"","type":"uint256","internalType":"uint256"}],"stateMutability":"view"},{"type":"function","name":"ref","inputs":[],"outputs":[{"name":"","type":"address","internalType":"contract IStdReference"}],"stateMutability":"view"},{"type":"function","name":"scalingFactor","inputs":[],"outputs":[{"name":"","type":"uint256","internalType":"uint256"}],"stateMutability":"view"}],"bytecode":{"object":"0x60c060405234620000db5762000b08803803806200001d81620000f7565b928339810160a082820312620000db578151906001600160a01b0382168203620000db576200004f602084016200012c565b6200005d604085016200012c565b60608501516001600160401b039591929190868111620000db5784620000859183016200013b565b936080820151968711620000db57620000ab96620000a492016200013b565b93620003d9565b6040516105d1908162000537823960805181818161037201526103f7015260a05181818161043501526104fe0152f35b600080fd5b50634e487b7160e01b600052604160045260246000fd5b6040519190601f01601f191682016001600160401b038111838210176200011d57604052565b62000127620000e0565b604052565b519060ff82168203620000db57565b81601f82011215620000db578051906001600160401b038211620001bf575b60209062000171601f8401601f19168301620000f7565b93838552828483010111620000db5782906000905b83838310620001a6575050116200019c57505090565b6000918301015290565b8193508281939201015182828801015201839162000186565b620001c9620000e0565b6200015a565b50634e487b7160e01b600052601160045260246000fd5b90600182811c9216801562000218575b60208310146200020257565b634e487b7160e01b600052602260045260246000fd5b91607f1691620001f6565b601f811162000230575050565b60009081805260208220906020601f850160051c8301941062000270575b601f0160051c01915b8281106200026457505050565b81815560010162000257565b90925082906200024e565b90601f821162000289575050565b60019160009083825260208220906020601f850160051c83019410620002cc575b601f0160051c01915b828110620002c15750505050565b8181558301620002b3565b9092508290620002aa565b80519091906001600160401b038111620003c9575b6001906200030681620003008454620001e6565b6200027b565b602080601f83116001146200034457508192939460009262000338575b5050600019600383901b1c191690821b179055565b01519050388062000323565b6001600052601f198316959091907fb10e2d527612073b26eecdfd717e6a320cf44b4afac2b0732d9fcbe2b7fa0cf6926000905b888210620003b1575050838596971062000397575b505050811b019055565b015160001960f88460031b161c191690553880806200038d565b80878596829496860151815501950193019062000378565b620003d3620000e0565b620002ec565b6080529193929160ff91821690821681811062000526575b0316604d811162000516575b600a0a60a05282516001600160401b03811162000506575b6000906200042f81620004298454620001e6565b62000223565b602080601f8311600114620004775750819062000469959684926200046b575b50508160011b916000199060031b1c1916179055620002d7565b565b0151905038806200044f565b60008052601f198316967f290decd9548b62a8d60345a988386fc84ba6bc95484008f6362f93160ef3e563929185905b898210620004ed5750509083929160019462000469989910620004d3575b505050811b019055620002d7565b015160001960f88460031b161c19169055388080620004c5565b80600185968294968601518155019501930190620004a7565b62000510620000e0565b62000415565b62000520620001cf565b620003fd565b62000530620001cf565b620003f156fe60806040526004361015610013575b600080fd5b6000803560e01c908163217a4b701461008e5750806321a78f6814610085578063bef55ef31461007c578063c55dae6314610073578063dddd9e961461006a5763ed3437f81461006257600080fd5b61000e6104e5565b5061000e6104d1565b5061000e6104a5565b5061000e6103a1565b5061000e61035b565b346100b957806003193601126100b9576100b56100a961024e565b60405191829182610304565b0390f35b80fd5b90600182811c921680156100ec575b60208310146100d657565b634e487b7160e01b600052602260045260246000fd5b91607f16916100cb565b9060009160005490610107826100bc565b8082529160019081811690811561017d575060011461012557505050565b91929350600080527f290decd9548b62a8d60345a988386fc84ba6bc95484008f6362f93160ef3e563916000925b84841061016557505060209250010190565b80546020858501810191909152909301928101610153565b60ff191660208401525050604001925050565b906000916001908154916101a3836100bc565b8083529281811690811561017d57506001146101be57505050565b80929394506000527fb10e2d527612073b26eecdfd717e6a320cf44b4afac2b0732d9fcbe2b7fa0cf6916000925b8484106101fe57505060209250010190565b805460208585018101919091529093019281016101ec565b90601f8019910116810190811067ffffffffffffffff82111761023857604052565b634e487b7160e01b600052604160045260246000fd5b604051600081600191825492610263846100bc565b808452938181169081156102e7575060011461028a575b5061028792500382610216565b90565b600081815291507fb10e2d527612073b26eecdfd717e6a320cf44b4afac2b0732d9fcbe2b7fa0cf65b8483106102cc575061028793505081016020013861027a565b819350908160209254838589010152019101909184926102b3565b94505050505060ff1916602082015261028781604081013861027a565b919091602080825283519081818401526000945b828610610345575050806040939411610338575b601f01601f1916010190565b600083828401015261032c565b8581018201518487016040015294810194610318565b503461000e57600036600319011261000e576040517f00000000000000000000000000000000000000000000000000000000000000006001600160a01b03168152602090f35b503461000e5760031960003682011261000e5761045a6103f360606100b5936040518093819263195556f360e21b8352604060048401526103e4604484016100f6565b90838203016024840152610190565b03817f00000000000000000000000000000000000000000000000000000000000000006001600160a01b03165afa908115610498575b60009161046a575b50517f000000000000000000000000000000000000000000000000000000000000000090610572565b6040519081529081906020820190565b61048b915060603d8111610491575b6104838183610216565b810190610521565b38610431565b503d610479565b6104a0610565565b610429565b503461000e57600036600319011261000e576100b56040516100a9816104ca816100f6565b0382610216565b503461000e57600036600319011261000e57005b503461000e57600036600319011261000e5760206040517f00000000000000000000000000000000000000000000000000000000000000008152f35b9081606091031261000e5760405190606082019082821067ffffffffffffffff83111761023857604091825280518352602081015160208401520151604082015290565b506040513d6000823e3d90fd5b8060001904821181151516610585570290565b634e487b7160e01b600052601160045260246000fdfea264697066735822122053cfb7b37092c28d461cf6387ad085646c5cf4ccd06822d58ce0f7819d82b38b64736f6c634300080d0033","linkReferences":{}},"methodIdentifiers":{"acceptTermsOfService()":"dddd9e96","baseToken()":"c55dae63","quoteToken()":"217a4b70","readData()":"bef55ef3","ref()":"21a78f68","scalingFactor()":"ed3437f8"},"id":2}